:400000000080002011000000DD040000DD04000008B5044B1A6803F53F5302331A6000F065FA00BFFA46004010B5054C237833B9044B13B10448AFF300800123237010BD56
:400040003881FF1F0000000028380000084B10B51BB108490848AFF300800848036803B910BD074B002BFBD0BDE81040184700BF000000003C81FF1F28380000C880FF1F62
:400080000000000008B500F0F1FA00F063FB00F0D5FB00F047FC08BD2DE9F047056844688668284602F086FD80468946204602F081FD42464B4600F03BFDDFF838A103F01C
:4000C000A5F8CAF800002946284603F0FDF905462146204603F0F8F90146284603F0ECF80446204602F066FD00F024FD03F08EF805463949304603F0DFF8384903F0DAF871
:4001000004462946284603F0DFF906462146204603F0DAF90146304603F0CEF8304903F0C9F8304903F0C6F82F4903F081FA02F041FD00F0A5FC03F069F8CAF808002846EE
:4001400002F038FD06460F46204602F033FD32463B4600F0EDFC04460D46DAF8080002F029FD8046894600F043FC06460F464046494600F0F5FB16A3D3E9002302F06EFD7F
:4001800000221A4B02F0B8FB8046894610A3D3E900233046394602F061FD42464B4600F0C7FC02460B462046294602F0A3FB03F02DF80146CAF804000D4803F07BF8DAF82B
:4001C0000C1003F077F8CAF80C005046BDE8F087000000A0997932400000104119041A4100100A44AFA9AA43CD14594400803740DB0FC93F5481FF1F08B5074903F018FA05
:40020000064903F061F9054903F056F803F0ACFA80B200F0D9F908BD000034430000FA4408B5074903F004FA064903F04DF9054903F042F803F098FA80B200F039FA08BDEC
:40024000000034430000FA4408B5074903F0F0F9064903F039F9054903F02EF803F084FA80B200F099FA08BD000034430000FA4408B5074903F0DCF9064903F025F90549E2
:4002800003F01AF803F070FA80B200F0F9FA08BD000034430000FA4410B584B062B6FFF7F1FE0B4A01AB07CA83E807001846FFF7F3FE04460068FFF79FFF6068FFF7B0FF1B
:4002C000A068FFF7C1FFE068FFF7D2FFFEE700BF30380000FEE700BFF0B40022174611E050F82760F3B226F0FF0608E001EB420511F812406D78A5550132013BDBB2002B62
:40030000F4D101370F2FEBD9F0BC7047064B1B78DBB203F00701054A11701B09013213704422034B1A707047CF0100496E5800407658004008B50A46002103F06CFA08BDD7
:4003400038B50B22244B1A80182202331A70022203F27E231A7008224FF040231A70032103F5007319701D4B1B78DBB21C490B701C4B1A8041F25122023B1A800024192567
:400380000CE0194B1B7803F0010343EA440404F003044FF4F07000F0D3FA013D0DB1032CEFD115B90320FFF795FF104B4FF480721A8007221A7000220D490A7048200231C3
:4003C00008701A700222033B1A700A4A137843F00103137038BD00BF8040004008010049A146004022420040254200400440004006400040A243004008B503F001FA08BD5F
:4004000038B572B6284A137843F00403137000240CE0264D630019194A0011462A44084691882858FFF786FF0134E4B2072CF0D91F494FF09040FFF74FFF1E4A137843F0BC
:40044000020313701032137843F0020313701A4C237843F040032370A2F58632513A137843F010031370082214491548FFF7C4FF082214491448FFF7BFFF144A137843F0E4
:4004800008031370124D61232B70FFF759FF81232B7001220F4B1A70FFF738FF0E2221460D48FFF7A9FF38BDE84600403C3800004000004803500140A0430040F80300488C
:4004C000025100400004004812510040224300400048004004000840B043004008B503F063F903680C2B00D1FEE7FEE708B5104E104D16E029686B68AC68002204E051F850
:40050000040B43F8040B0432A242F8D1E868002203E0002143F8041B04328242F9D11035013E002EE6D103F045F9FFF7B5FEFEE701000000C03A000008B5104A104B1A60DC
:40054000104A136843F40073136000230AE0032B03D80D4A52F8231000E00C490C4A42F8231001332F2BF2D90A4B1A780A4B1A70074A0A4B1A60FFF743FF08BD0004FA0568
:400580000CED00E014ED00E000000000DD0400000080FF1FBC760040C080FF1F08ED00E0024A137843F080031370704775640040014B1880704700BF08680040014B18808F
:4005C000704700BF88680040014B1880704700BF48680040014B1870704700BF85640040014B1878704700BF65640040014B188880B27047A868004008B501E0FFF7F6FF8F
:40060000FFF7EEFF10F0100FF8D108BD10B5154A137803F0C00343F00B0313701F32137843F001031370104C237843F00103237049F63F40FFF7BCFF49F63F40FFF7BEFFCA
:4006400040F6B830FFF7C0FF0020FFF7C3FF00F07FF9237843F01003237000F07DF9FFF7CBFF10BD756400409564004008B5054B1B7823B9FFF7CAFF0122024B1A70FFF783
:400680008FFF08BD6481FF1F024A137843F080031370704774650040014B1880704700BF086A0040014B1880704700BF686A0040014B1880704700BF486A0040014B18706C
:4006C000704700BF85650040014B1878704700BF65650040014B188880B27047A86A004008B501E0FFF7F6FFFFF7EEFF10F0100FF8D108BD10B5154A137803F0C00343F026
:400700000B0313702032137843F001031370104C237843F00103237044F61F60FFF7BCFF44F61F60FFF7BEFF41F2DF00FFF7C0FF0020FFF7C3FF00F00BF9237843F0100386
:40074000237000F009F9FFF7CBFF10BD746500409565004008B5054B1B7823B9FFF7CAFF0122024B1A70FFF78FFF08BD6581FF1F024A137843F080031370704777640040B0
:40078000014B1880704700BF0C680040014B1880704700BF6C680040014B1880704700BF4C680040014B1870704700BF87640040014B1878704700BF67640040014B1888B1
:4007C00080B27047AC68004008B501E0FFF7F6FFFFF7EEFF10F0100FF8D108BD10B5154A137803F0C00343F00B0313701F32137843F001031370104C237843F00103237023
:4008000044F61F60FFF7BCFF44F61F60FFF7BEFF41F2DF00FFF7C0FF0020FFF7C3FF00F097F8237843F01003237000F095F8FFF7CBFF10BD776400409764004008B5054BE3
:400840001B7823B9FFF7CAFF0122024B1A70FFF78FFF08BD6681FF1F024A137843F080031370704777650040014B1880704700BF0C6A0040014B1880704700BF6C6A00409F
:40088000014B1880704700BF4C6A0040014B1870704700BF87650040014B1878704700BF67650040014B188880B27047AC6A004008B501E0FFF7F6FFFFF7EEFF10F0100F5E
:4008C000F8D108BD10B5154A137803F0C00343F00B0313701F32137843F001031370104C237843F00103237044F61F60FFF7BCFF44F61F60FFF7BEFF41F2DF00FFF7C0FF4D
:400900000020FFF7C3FF00F023F8237843F01003237000F021F8FFF7CBFF10BD776500409765004008B5054B1B7823B9FFF7CAFF0122024B1A70FFF78FFF08BD6781FF1FEE
:400940000230800803D000BF01380046FCD17047EFF3108072B6704780F31088704700BF30B5214A21F00043934287B01BDD1F4A934205DD02460B4601F0BCFF07B030BDA5
:4009800002AA00F055FC00F0030001281AD002280FD008B3DDE9020101230093DDE9042301F03EFCEAE70022002300F01DFF07B030BDDDE90423DDE9020100F015FF01F176
:4009C0000041DBE70090DDE90423DDE9020101F027FC01F10041D1E7DDE90423DDE9020100F002FFCAE700BFFB21E93FFFFFEF7F30B5214A21F00043934287B01BDD1F4AD7
:400A0000934205DD02460B4601F074FF07B030BD02AA00F00DFC00F0030001281ED0022811D0DDE9042300B3DDE9020100F0DCFE01F10041EAE7002300930022002301F081
:400A4000EFFB07B030BD01230093DDE90201DDE9042301F0E5FB01F10041D7E7DDE90423DDE9020100F0C0FED0E70124DDE90201009401F0D5FBC9E7FB21E93FFFFFEF7FFB
:400A80002DE9F0438BB004460D4600F0B1F8DFF89C80064698F900300F4601332ED022462B462046294602F073FB814630BB2046294601F00BFE0022194B02F05FFBE8B1FB
:400AC000184A012318480093CDF82090CDE90445CDE90245019201F089FE98F90030CDE90601022B0FD0684601F07EFE58B1089B83B9DDE906010BB0BDE8F08330463946DF
:400B00000BB0BDE8F08302F04FFE21230360089B002BEED002F048FE089B0360E9E700BF0000F03F6C38000070380000CC80FF1F00F0B2BA2DE9F04F8BB004460D4600F045
:400B40008DFD284B064693F900A00F46BAF1FF3F12D022462B462046294602F019FB834650B94FF000084FF000092046294642464B4602F0E5FA20B9304639460BB0BDE8DE
:400B8000F08F194A0123CDF820B0CDE90445CDE9024501920093BAF1000F15D042464B464046494602F084F9BAF1020FCDE906010CD102F0F9FD21230360089B63B9DDE9D2
:400BC00006010BB0BDE8F08FCDE90689684601F00BFE0028F1D1ECE702F0E6FD089B0360EDE700BFCC80FF1F74380000000000002DE9F84FC44E21F00043B3420C4605468C
:400C00000DDD03F1404303F58013034340F0B980002940F3408100200021BDE8F88FBB4EB34240F3A6800029C0F2788102460B460020B74901F05EFE0022B64B02F00EF843
:400C400004460D4600F00AFD95A3D3E90023894680462946204602F001F893A3D3E9002301F04AFE22462B4601F0F8FF90A3D3E9002301F03FFE22462B4601F0EFFF8EA33C
:400C8000D3E9002301F038FE22462B4601F0E6FF8BA3D3E9002301F02DFE22462B4601F0DDFF89A3D3E9002301F026FE22462B4601F0D4FF86A3D3E9002382468B462046EC
:400CC000294601F0CBFF84A3D3E9002301F012FE22462B4601F0C2FF81A3D3E9002301F00BFE22462B4601F0B9FF7FA3D3E9002301F000FE22462B4601F0B0FF0022844B5F
:400D000001F0FAFD02460B465046594602F0D0F842464B4601F0A2FF002682468B4632464B463046494601F099FF02460B462046294601F0DFFD324604460D464B464046DB
:400D4000494601F0D9FD02460B462046294602F0AFF802460B465046594601F0CDFD32464B4601F0C9FD02460B4601F0C5FDBDE8F88F694A93420EDC5DA1D1E90001BDE885
:400D8000F88F02460B4601F0B5FD02460B4602F08FF8BDE8F88F02460B4601F05FFF40A3D3E9002306460F4601F058FF3EA3D3E9002301F0A1FD32463B4601F04FFF3CA339
:400DC000D3E9002301F096FD32463B4601F046FF39A3D3E9002301F08FFD32463B4601F03DFF37A3D3E9002301F084FD32463B4601F034FF34A3D3E9002301F07DFD324622
:400E00003B4601F02BFF32A3D3E90023804689463046394601F022FF2FA3D3E9002301F069FD32463B4601F019FF2DA3D3E9002301F062FD32463B4601F010FF2AA3D3E93B
:400E4000002301F057FD32463B4601F007FF00222F4B01F051FD02460B464046494602F027F82A46234601F0F9FE02460B4622A1D1E9000101F03EFD02460B46284621460E
:400E800001F038FD02460B4619A1D1E9000101F031FDBDE8F88F1AA1D1E90001BDE8F88F09F7FD0DE13D023F88B20175E0EF493F3B8F68B52882A43F5544880E55C1C93FE0
:400EC0007D6FEB0312D6D43F555555555555C53F82922EB1C5B8B33F59018D1B6C06E63FC88A599CE52A00404B2D8A1C273A0340182D4454FB21F93F075C143326A6913C54
:400F0000182D4454FB210940FFFFEF3FFFFFDF3F0000F03F0000E03F0000603C00225C4B01F0EAFC00225B4B01F098FE40A3D3E9002304460D4601F091FE3FA3D3E90023AE
:400F400001F0DAFC22462B4601F088FE3CA3D3E9002301F0CFFC22462B4601F07FFE3AA3D3E9002301F0C8FC22462B4601F076FE37A3D3E9002301F0BDFC22462B4601F0BD
:400F80006DFE35A3D3E9002301F0B6FC22462B4601F064FE804689462046294600F05EFB2FA3D3E9002306460F462046294601F055FE2DA3D3E9002301F09CFC22462B4611
:400FC00001F04CFE2AA3D3E9002301F095FC22462B4601F043FE28A3D3E9002301F08AFC22462B4601F03AFE0022294B01F084FC02460B464046494601F05AFF32463B4662
:4010000001F02CFE1EA3D3E9002301F073FC32463B4601F071FC02460B4601F06DFC02460B4619A1D1E9000101F064FCBDE8F88F09F7FD0DE13D023F88B20175E0EF493F50
:401040003B8F68B52882A43F5544880E55C1C93F7D6FEB0312D6D43F555555555555C53F82922EB1C5B8B33F59018D1B6C06E63FC88A599CE52A00404B2D8A1C273A034085
:40108000075C143326A6913C182D4454FB2109400000F03F0000E03F2DE9F84F5442144323F00049DFF880E149EAD474744506460D463ED84442044321F0004B4BEAD474F0
:4010C00074458A4635D803F1404404F58014144344D09C1704F0020444EAD17450EA0B012FD052EA090133D0F14546D0F3452FD0C9EB0B094FEA2959B9F13C0F34DC002B06
:4011000057DB3046294601F0D3FE01F0DFFA01F03FF9012C4AD0022C3BD084B132A3D3E9002301F0E7FB32A3D3E9002301F0E2FB05E01046194632462B4601F0DDFBBDE834
:40114000F88F022C14D0032C0CD12D482D49F6E7BAF1000F2A480EDB2B49F0E7BDE8F84F01F016B92946EAE723A1D1E90001D0E723482649E3E72649E1E7CB451FD0022C78
:40118000F6D0032CE1D0012C4FF0000020D00146D5E715A3D3E9002301F0ACFB02460B4613A1D1E9000101F0A5FBC8E701F10041C5E719F13C0FA4DA00200021A9E7022C02
:4011C0000ED0032C09D0012C0D4804D01149B6E74FF00041B3E71049B1E710481049AEE70E481049ABE700BF075C143326A6A13C182D4454FB210940182D4454FB21F93FA5
:40120000182D4454FB2109C0FB21F93FFB210940FB21F9BFFB21E93FFB21E9BFD221337F7CD902C07CD902400000F07F000000002DE9F04F944C21F00047A7428FB040F3AD
:4012400081801446914A0E46974226DC84A3D3E90023002940F3A08101F04CFB8C4B80469F42894600F083807FA3D3E9002301F041FB02460B464046C4E90023494601F071
:4012800039FB79A3D3E9002301F034FB0125C4E9020128460FB0BDE8F08F7E4A974240F383807D4A974258DC3D15A5F21645A7EB05518B46824601F081FF01F069FC8046BB
:4012C000894642464B4650465946CDE9088901F011FB0022714B01F0C1FC8B46824601F06DFF01F055FC8046894642464B4650465946CDE90A8901F0FDFA0022674B01F0F0
:40130000ADFC00220023CDE90C0101F00FFF002800F06A81002340464946002201F006FF002814BF012302235D480221019000912A46214608A800F07BFB002EC0F24A81E4
:40134000054606E0C2E9000100250024C2E90245002528460FB0BDE8F08F02460B4601F0C9FA0025C4E90201C4E90001F1E740A3D3E9002301F0BEFA3FA3D3E900230646BF
:401380000F4601F0B7FA02460B463046C4E90023394601F0AFFA38A3D3E9002301F0AAFA0125C4E90201D4E701F090F934A3D3E900238046894601F051FC0022394B01F0C4
:4013C0009BFA01F0FBFE054601F0E2FB24A3D3E90023CDE9040101F041FC02460B464046494601F087FA20A3D3E9002382468B46DDE9040101F032FC1F2DCDE9020155DC4B
:40140000294B6A1E53F822309F424FD002460B465046594601F06EFA02460B4681468846C4E900234A4643465046594601F062FADDE9022301F05EFA02460B46002EC4E9AB
:40144000022386DA4A4608F1004301F1004184E80C00E160A0606D427BE700BFAFF3008000004054FB21F93F3163621A61B4D03D0000601A61B4D03D7370032E8A19A33BF2
:4014800083C8C96D305FE43FFB21E93F7BD90240FB21F93FFB213941FFFFEF7F00007041FC3800000000E03F7C380000DDE902235046594601F01EFA3F15C1F30A53FB1A6E
:4014C000102B81468846C4E90001ABDD58A3D3E90023DDE9040101F0C1FB8046894602460B465046594601F005FACDE9060102460B465046594601F0FDF942464B4601F0C5
:40150000F9F94DA3D3E9002380468946DDE9040101F0A4FB42464B4601F0ECF902460B46CDE90201DDE9060101F0E4F90B4602468846C1F30A517F1A312F8146C4E9002318
:4015400072DD3FA3D3E90023DDE9040101F086FB8046894602460B46DDE9060101F0CAF902460B4682468B46DDE9060101F0C2F942464B4601F0BEF933A3D3E90023804688
:401580008946DDE9040101F069FB42464B4601F0B1F9CDE9020139E701F0AEF92E4B80469F42894622D02AA3D3E9002301F0A4F902460B464046C4E90023494601F09AF9FA
:4015C00023A3D3E9002301F097F94FF0FF35C4E90201BEE66268E36802F1004203F1004345426260E360B4E603239DE610A3D3E9002301F081F910A3D3E9002306460F467E
:4016000001F07AF902460B463046C4E90023394601F070F908A3D3E9002301F06DF94FF0FF35C4E9020194E6DDE906ABFAE600BF0000601A61B4D03D7370032E8A19A33BC9
:401640000000002E8A19A33BC14920259A837B393163621A61B4D03DFB21F93F2DE9F0415F4E0C46B6460E407645054600F0988000290B46024674DD5FEA215E7FD0AEF2AD
:40168000FF3EC3F313031EF0010F43F4801363D100273E4603EBD2710B444FEA6E0E520016204FF4001174189C424FEAD2754FEA420202DC1B1B66180F44013805EB43038E
:4016C0004FEA5101EFD1844620244FF0004109E020D003EBD275013C4FEA51012B444FEA420220D09E4201EB0C05F1DA002D05EB010C09DBB0469542A3EB060300D9013B30
:401700004646521B0844E4E7BCF1000FF2DB06F10108F0E7954217D8002D05EB010C49DB98460023ECE7134310D140087B1003F17F5303F50013FA0703EB0E57394648BF9C
:4017400040F00040BDE8F0813346C2E7411C35D000F001031844E8E75B0003EBD273520096E721F000460643ECD079BB8E46D30AAEF1150E5205002BF9D0DD0221D40021A0
:4017800000E001465B00DC0201F10100F9D5C0F1200422FA04F42343C1EB0E0E82406EE702460B4601F05AFA2A46234601F0A4F8BDE8F081BCF1000FA9DAB1E7013720460B
:4017C000B4E720244FF0FF310020E2E702460B4601F090F802460B4601F06AFBB2E700BF0000F07F000000002DE9F04F21F00046B6F1795F85B00C4692469B4605466BDAEF
:4018000001F0DCFC002800F0E7802A4623462846214601F023FA74A3D3E900238046894601F01CFA72A3D3E9002301F065F842464B4601F013FA70A3D3E9002301F05AF884
:4018400042464B4601F00AFA6DA3D3E9002301F053F842464B4601F001FA6BA3D3E9002301F048F842464B4601F0F8F968A3D3E9002301F041F842464B4601F0EFF9CDE955
:4018800000010022644B4046494601F0E7F9DDE9002306460F464046494601F0DFF95246804689465B462846214601F0D7F902460B464046494601F01DF802460B463046E1
:4018C000394601F017F802460B460020534901F011F805B0BDE8F08F02460B4601F0BEF941A3D3E900238046894601F0B7F940A3D3E9002301F000F842464B4601F0AEF9AB
:401900003DA3D3E9002300F0F5FF42464B4601F0A5F93BA3D3E9002300F0EEFF42464B4601F09CF938A3D3E9002300F0E3FF42464B4601F093F936A3D3E9002300F0DCFF7E
:401940004B46424601F08AF9354BCDE900019E4297DD344B00229E4238DCA6F5001300202E4916461F4600F0C5FFCDE902010022294B4046494601F071F932463B4600F058
:40198000B9FFDDE9002306460F464046494601F065F95246804689465B462846214601F05DF902460B464046494600F0A3FF02460B463046394600F09DFF02460B46DDE9DE
:4019C000020100F097FF05B0BDE8F08F164B0026CDE90223154FCAE71049002005B0BDE8F08F00BFAFF30080D43888BEE9FAA8BDC4B1B4BD9EEE213EAD529C804F7E923EB8
:401A00009015CB19A001FA3E7751C1166CC1563F4C5555555555A53F0000E03F0000F03F3233D33F0000E93F0000E73F0000D23F2DE9F04F794CADF51D7D1F460B93D31E9C
:401A400084FB0354DB17C3EBA403A69E744C23EAE37554F826406B1C26460994A3EB83037C1E0D95029402EBC3032D1B341904900A91089316D42C44013422AEA79F08E019
:401A800057F8250001F084F80135A542E6E9020108D0002DF4DA013500200021A542E6E90201F6D1099B002B2FDB099B74AADDF8089002EBC30B0DF5E47A029B002BC0F2EF
:401AC00095810B9B0026C3EB090824AB03EBC808049B0027A3F1080524AB03EBC904F5E9022374E8020101F0B9F802460B463046394600F001FF444506460F46EFD1EAE988
:401B00000267DA4509F10109D7D1099B10A91D4603F18043023B9B001A1D0A440B440F920E939CAB03EBC503002D53E928672BDD9CAB03EBC504A83C0DF13C0A0DF5E47B88
:401B40000022384B3046394601F088F801F036FB01F01EF80022344B8046894601F07EF802460B463046394600F0C4FE01F026FB74E802234AF8040F4946404600F0BCFEAD
:401B80005C4506460F46DBD1089C30463946224600F032FE00224FF07F5306460F4601F05DF800F099FD0022204B01F057F802460B463046394600F09DFE0F46064601F0FE
:401BC000FDFA814600F0E4FF02460B463046394600F090FE002C06460F4640F3EE80681E10AB53F82030C4F1180243FA02F101FA02F29B1AC4F1170810AA42F82030894476
:401C000043FA08F8B8F1000F3DDD002D09F1010940F3D382002214460FA911E0ABAAAA2A043A00000000703E0000704100002040C3F180700BB108600124013295420DDDB0
:401C400051F8043F002CF3D0C3F1FF13013203F57F4395420B604FF00104F1DC089B002B0DDD012B00F0B180022B08D16A1E10AB53F8223010A9C3F3150341F82230B8F13D
:401C8000020F00F08180002200233046394601F04DFA002800F05B82099B05F1FF3B5B4510DC05F1804310AA013B0F9802EB8303002253F80419834242EA0102F9D1002A20
:401CC00040F0B180099B10AA013B52F82330002B40F071820E9A012352F8041901330029FAD0E9186A1C8A420C914BDC0D990B985118DB0001F180410593A79B05440139F0
:401D0000E80003EB810A24ABD20003EB000B74AB13440193A2F10803069007934FF000095AF8040F00F034FF029BEBE80201002B4FF000064FF000071BDB069B03EB090445
:401D4000079B09EB030824AB1C449844049BA3F10805F5E9022374E8020100F07FFF02460B463046394600F0C7FD444506460F46EFD1019B09F10809E3E802670193059B6C
:401D80009945CDD10C9DCCE632463B460020B04900F0B0FD06460F46002C3FF474AF089A0020AB4900F028FD02460B463046394600F0A0FD06460F4665E710D16B1E10AA83
:401DC00052F823304FEAE3581CE76A1E10AB53F8223010A9C3F3160341F822304FE700229C4B01F0C1F958B980464CE700260027EAE90267DA4509F101097FF45EAE84E653
:401E0000002D09F10109C8BF4FF002083FF702AF32463B4600208E4900F06CFD4FF0020806460F462FE7089A10AB53F82B30183ACDF81490CDF8048008926BB90BF18043ED
:401E4000013B10A901EB830353F804190BF1FF3B183A0029F8D00892089A00207C4900F0CBFCBBF1000F04460D46C0F2B6814FEACB030DF5E87810AA02EB8B0608EB030961
:401E80000493043609F1080756F8040D00F080FE22462B4600F0E2FE002267E902016E4B2046294600F0DAFEB84504460D46EBD14B46CDF818B09B460DF5987ACDF808A031
:401EC000DDF824A04FF00009BAF1000FC0F226815DA3D3E90023DFF884815D4600260027002403E0A14510DBF8E90223F5E8020100F0B4FE02460B463046394600F0FCFC6D
:401F00000134A24506460F46ECDA029BABF1080B03EBC903C3E9006772AB5B4509F10109D2D1A69BDDF818B0DDF808A0032B00F28380DFE813F0D100950095000400BBF1AE
:401F4000000F40F35481049BCDF808B053449846D3E90067D34658E9029A32463B464846514600F0C9FC04460D4602460B464846514600F0BFFC32463B4600F0BDFCC8E974
:401F8000000168E90245C34526462F46E3D1DA46DDF808B0BBF1010F40F32981049B0DF59C7B53449846D3E90067994659E902343046CDE902341A463946234600F09CFCCC
:401FC00004460D4602460B46DDE9020100F092FC32463B4600F090FCC9E9000169E90245CB4526462F46E1D100231D4608F1080850AC184678E90223294600F07DFC444530
:4020000003460D46F5D1019A002A00F0D880DAF80440DAF80C200A9FDAF80010DAF8080005F1004504F1004402F100427D613B617C60FA603960B860059B03F007000DF512
:402040001D7DBDE8F08F00BF00000040FB21F93F0000F03F0000E03F0000703E183A000000242146049D0835554475E90223204600F042FC55450446F7D1019B002B50D055
:402080000A9F01F100450B46DAE9000187E83000224600F02FFCBBF1000F03460D460DDD01241846FAE90223294600F025FC0134A34503460D46F4DA019A0AB105F10045A5
:4020C000184629460A9BC3E90201059B03F007000DF51D7DBDE8F08F00231C46049A0832924418467AE90223214600F005FC0BF1FF3BBBF1FF3F03460C46F2D1019A0AB120
:4021000004F10044184621460A9BC3E90001059B03F007000DF51D7DBDE8F08F00260027F3E626460F4622460A9C0B46DAE90001C4E9006700F0DEFBBBF1000F03460D46B7
:40214000AEDC184629460A9BC3E90201BDE7089B30465A423946CDF81490CDF8048000F04BFB00222C4B06460F4600F0FDFF002840D00022294B3046394600F06FFD01F0BE
:402180001DF8044600F004FD0022234B00F066FD0B4602463946304600F0ACFB01F00EF8089B05F1010B1833089310AB43F8250043F82B4050E6012393E500244EE51846FD
:4021C000DAE90067DAE9022329460A9DC5E90067C5E90401C5E902232EE7A69B032B3FF62BAFDFE803F0151010020DF5987A00231D4608E73046394600F0E0FF10ABAB469F
:4022000043F8250028E6002421460DF5987A34E700231C4672E700BF000070410000703E2DE9F04F21F00046B6F1795F85B00C4690469946054604DA00F0C0FF002800F023
:4022400085802A4623462846214600F007FD06460F4602460B462846214600F0FFFC3EA3D3E9002382468B463046394600F0F6FC3BA3D3E9002300F03DFB32463B4600F0BF
:40228000EDFC39A3D3E9002300F036FB32463B4600F0E4FC36A3D3E9002300F02BFB32463B4600F0DBFC34A3D3E9002300F024FB0E9BCDE900019BB30022334B40464946DA
:4022C00000F0CCFCDDE90023CDE902015046594600F0C4FC02460B46DDE9020100F00AFB32463B4600F0BAFC42464B4600F002FB23A3D3E9002306460F465046594600F038
:40230000ADFC02460B463046394600F0F5FA02460B462846214600F0EDFA05B0BDE8F08F02460B463046394600F098FC14A3D3E9002300F0DFFA52465B4600F08FFC2A46D4
:40234000234600F0D9FA05B0BDE8F08F2846214605B0BDE8F08F00BF7CD5CF5A3AD9E53DEB9C2B8AE6E55A3E7DFEB157E31DC73ED561C119A0012A3FA6F810111111813F5A
:40238000495555555555C53F0000E03F000000002DE9F84FC04B21F000469E420D468A4604460FDDBD4B9E4200F3B28000F0AD80BB4BBC49BC4CBAF1000FC8BF19462046CD
:4023C000BDE8F88FB94B9E4200F3BC80A3F1DE739E4240F3A7804FF0FF3B22462B462046294600F03BFC02460B468046894600F035FC91A3D3E9002306460F4600F02EFC14
:402400008FA3D3E9002300F077FA32463B4600F025FC8DA3D3E9002300F06EFA32463B4600F01CFC8AA3D3E9002300F065FA32463B4600F013FC88A3D3E9002300F05CFA15
:4024400032463B4600F00AFC85A3D3E9002300F053FA42464B4600F001FC83A3D3E90023804689463046394600F0F8FB80A3D3E9002300F03FFA32463B4600F0EFFB7EA392
:40248000D3E9002300F036FA32463B4600F0E6FB7BA3D3E9002300F02DFA32463B4600F0DDFB79A3D3E9002300F024FA32463B4600F0D4FBBBF1FF3F02460B4669D040467B
:4024C000494600F019FA22462B4600F0C7FB784E784B4FEACB0B5E449B44DBE9002300F009FA22462B4600F005FA02460B46D6E9000100F0FFF9BAF1000F0446BFF65FAFFC
:4025000001F100412046BDE8F88F00283FF450AF224620462B46294600F0EEF904462046BDE8F88F5AA3D3E9002300F0E5F90022614B00F023FE00283FF44DAF2946204666
:40254000BDE8F88F00F0C2F85C4B04469E420D462FDCA3F550239E4254DC02460B4600F0CBF90022544B00F0C5F9002206460F464FF080432046294600F0BEF902460B46A5
:402580003046394600F094FC4FF0000B04460D4623E74046494600F0AFF922462B4600F05DFB02460B462046294600F0A3F9044605E7434B9E421ADC0022424B00F09AF921
:4025C000002206460F463F4B2046294600F046FB0022394B00F090F902460B463046394600F066FC4FF0020B04460D46F5E602460B460020344900F05BFC4FF0030B0446B1
:402600000D46EAE600222C4B00F074F9002206460F46294B2046294600F06EF902460B463046394600F044FC4FF0010B04460D46D3E600BFAFF3008011DA22E33AAD903F38
:40264000EB0D76244B7BA93F513DD0A0660DB13F6E204CC5CD45B73FFF8300922449C23F0D5555555555D53F2F6C6A2C44B4A2BF9AFDDE522DDEAD3F6D9A74AFF2B0B33FC0
:40268000711623FEC671BC3FC4EB98999999C93F9C7500883CE4377EFFFF0F440000F07FFB21F93FFB21F9BF182D4454FFFFDB3F783A0000583A00000000F03FFFFFF23F39
:4026C000FF7F03400000F83F0000F0BF21F00041704700BF00000000C1F30A522DE9F843A2F2FF36132E0B4604460D46884607461CDC002E3FDB3A4A864642FA06F901EA41
:402700000902024317D034A3D3E9002300F0F4F80022002300F032FD20B1002D40DB28EA0905002738462946BDE8F883332E06DDB6F5806F2FD020461946BDE8F883A2F2A9
:4027400013424FF0FF3929FA02F910EA090FF2D021A3D3E9002300F0CFF80022002300F00DFD0028DED0002D20DB454627EA090738462946D8E718A3D3E9002300F0BCF86E
:402780000022002300F0FAFC0028CBD0002D18DB00273D46C6E702460B4600F0ADF8CCE74FF4801343FA06F6B044B8E7142E10D00123C6F1340603FA06F6371928BF9844EE
:4027C000D3E725F00042074B224318BF1D460027A8E705F10108C8E79C7500883CE4377EFFFF0F000000F0BF0020704700200149704700BF0000F87FF8B5C1F30A56044610
:402800000D460B46174606BB21F00043034325D000222F4B00F022FA2E4A044697420D460B462ADBC1F30A56363E40F2FE723E44964228DC002E12DD23F0FF4323F4E00367
:4028400043EA065520462946F8BD40F2FF729642EBD102460B4600F04FF8F8BDF8BD16F1350F1DDA4CF250339F420CDC14A1D1E9000122462B4600F031F811A3D3E9002314
:4028800000F0ECF9F8BD22460FA1D1E900012B4600F024F80CA3D3E9002300F0DFF9F8BD23F0FF4323F4E003363643EA0655204629460022084B00F0D1F9F8BDAFF3008015
:4028C00059F3F8C21F6EA5019C7500883CE4377E00005043B03CFFFF0000903C03F0004321F0004242EA0301704700BF81F0004102E000BF83F0004330B54FEA41044FEA14
:40290000430594EA050F08BF90EA020F1FBF54EA000C55EA020C7FEA645C7FEA655C00F0E2804FEA5454D4EB5555B8BF6D420CDD2C4480EA020281EA030382EA000083EAD0
:40294000010180EA020281EA0303362D88BF30BD11F0004F4FEA01314FF4801C4CEA113102D0404261EB410113F0004F4FEA03334CEA133302D0524263EB430394EA050F22
:4029800000F0A780A4F10104D5F1200E0DDB02FA0EFC22FA05F2801841F1000103FA0EF2801843FA05F359410EE0A5F120050EF1200E012A03FA0EFC28BF4CF0020C43FACC
:4029C00005F3C01851EBE37101F0004507D54FF0000EDCF1000C7EEB00006EEB0101B1F5801F1BD3B1F5001F0CD349085FEA30004FEA3C0C04F101044FEA445212F5800FFA
:402A000080F09A80BCF1004F08BF5FEA500C50F1000041EB045141EA050130BD5FEA4C0C404141EB010111F4801FA4F10104E9D191F0000F04BF01460020B1FA81F308BFDC
:402A40002033A3F10B03B3F120020CDA0C3208DD02F1140CC2F10C0201FA0CF021FA02F10CE002F11402D8BFC2F1200C01FA02F120FA0CFCDCBF41EA0C019040E41AA2BF3C
:402A800001EB0451294330BD6FEA04041F3C1CDA0C340EDC04F11404C4F1200220FA04F001FA02F340EA030021FA04F345EA030130BDC4F10C04C4F1200220FA02F001FABC
:402AC00004F340EA0300294630BD21FA04F0294630BD94F0000F83F4801306BF81F480110134013D4EE77FEA645C18BF7FEA655C29D094EA050F08BF90EA020F05D054EAC1
:402B0000000C04BF1946104630BD91EA030F1EBF0021002030BD5FEA545C05D14000494128BF41F0004130BD14F580043CBF01F5801130BD01F0004545F0FE4141F4700161
:402B40004FF0000030BD7FEA645C1ABF194610467FEA655C1CBF0B46024650EA013406BF52EA033591EA030F41F4002130BD00BF90F0000F04BF0021704730B54FF4806467
:402B800004F132044FF000054FF0000150E700BF90F0000F04BF0021704730B54FF4806404F1320410F0004548BF40424FF000013EE700BF42004FEAE2014FEA31014FEA1B
:402BC00002701FBF12F07F4393F07F4F81F06051704792F0000F14BF93F07F4F704730B54FF4607401F0004521F0004120E700BF50EA010208BF704730B54FF000050AE013
:402C000050EA010208BF704730B511F0004502D5404261EB41014FF4806404F132045FEA915C3FF4DCAE4FF003025FEADC0C18BF03325FEADC0C18BF033202EBDC02C2F146
:402C4000200300FA03FC20FA02F001FA03FE40EA0E0021FA02F11444C1E600BF70B54FF0FF0C4CF4E06C1CEA11541DBF1CEA135594EA0C0F95EA0C0F00F0DEF82C4481EAA8
:402C8000030621EA4C5123EA4C5350EA013518BF52EA033541F4801143F4801338D0A0FB02CE4FF00005E1FB02E506F00042E0FB03E54FF00006E1FB03569CF0000F18BF0B
:402CC0004EF0010EA4F1FF04B6F5007F64F5407404D25FEA4E0E6D4146EB060642EAC62141EA55514FEAC52040EA5E504FEACE2EB4F1FD0C88BFBCF5E06F1ED8BEF1004F5A
:402D000008BF5FEA500E50F1000041EB045170BD06F0004646EA010140EA020081EA0301B4EB5C04C2BFD4EB0C0541EA045170BD41F480114FF0000E013C00F3AB8014F1BD
:402D4000360FDEBF002001F0004170BDC4F10004203C35DA0C341BDC04F11404C4F1200500FA05F320FA04F001FA05F240EA020001F0004221F0004110EBD37021FA04F6BA
:402D800042EB06015EEA430E08BF20EAD37070BDC4F10C04C4F1200500FA04F320FA05F001FA04F240EA020001F0004110EBD37041F100015EEA430E08BF20EAD37070BDCC
:402DC000C4F1200500FA05F24EEA020E20FA04F301FA05F243EA020321FA04F001F0004121FA04F220EA020000EBD3705EEA430E08BF20EAD37070BD94F0000F0FD101F0C1
:402E00000046400041EB010111F4801F08BF013CF7D041EA060195F0000F18BF704703F00046520043EB030313F4801F08BF013DF7D043EA0603704794EA0C0F0CEA135506
:402E400018BF95EA0C0F0CD050EA410618BF52EA4306D1D181EA030101F000414FF0000070BD50EA410606BF1046194652EA430619D094EA0C0F02D150EA013613D195EAD0
:402E80000C0F05D152EA03361CBF104619460AD181EA030101F0004141F0FE4141F470014FF0000070BD41F0FE4141F4780170BD70B54FF0FF0C4CF4E06C1CEA11541DBF91
:402EC0001CEA135594EA0C0F95EA0C0F00F0A7F8A4EB050481EA030E52EA03354FEA013100F088804FEA03334FF0805545EA131343EA12634FEA022245EA111545EA1065E7
:402F00004FEA00260EF000419D4208BF964244F1FD0404F5407402D25B084FEA3202B61A65EB03055B084FEA32024FF480104FF4002CB6EB020E75EB030E22BFB61A754626
:402F400040EA0C005B084FEA3202B6EB020E75EB030E22BFB61A754640EA5C005B084FEA3202B6EB020E75EB030E22BFB61A754640EA9C005B084FEA3202B6EB020E75EB32
:402F8000030E22BFB61A754640EADC0055EA060E18D04FEA051545EA16754FEA06164FEAC30343EA52734FEAC2025FEA1C1CC0D111F4801F0BD141EA00014FF000004FF0C7
:402FC000004CB6E711F4801F04BF01430020B4F1FD0C88BFBCF5E06F3FF6AFAEB5EB030C04BFB6EB020C5FEA500C50F1000041EB045170BD0EF0004E4EEA113114EB5C04BC
:40300000C2BFD4EB0C0541EA045170BD41F480114FF0000E013C90E645EA060E8DE60CEA135594EA0C0F08BF95EA0C0F3FF43BAF94EA0C0F0AD150EA01347FF434AF95EAE9
:403040000C0F7FF425AF104619462CE795EA0C0F06D152EA03353FF4FDAE1046194622E750EA410618BF52EA43067FF4C5AE50EA41047FF40DAF52EA43057FF4EBAE12E7AB
:403080004FF0FF3C06E000BF4FF0010C02E000BF4FF0010C4DF804CD4FEA410C7FEA6C5C4FEA430C18BF7FEA6C5C1BD001B050EA410C0CBF52EA430C91EA030F02BF90EA1A
:4030C000020F0020704710F1000F91EA030F58BF994208BF90422CBFD8176FEAE37040F0010070474FEA410C7FEA6C5C02D150EA013C07D14FEA430C7FEA6C5CD6D152EADD
:40310000033CD3D05DF8040B704700BF8446104662468C461946634600E000BF01B5FFF7B7FF002848BF10F1000F01BD4DF808EDFFF7F4FF0CBF012000205DF808FB00BFED
:403140004DF808EDFFF7EAFF34BF012000205DF808FB00BF4DF808EDFFF7E0FF94BF012000205DF808FB00BF4DF808EDFFF7CEFF94BF012000205DF808FB00BF4DF808ED4F
:40318000FFF7C4FF34BF012000205DF808FB00BF4FEA410C7FEA6C5C02D150EA013C0AD14FEA430C7FEA6C5C02D152EA033C02D14FF0000070474FF0010070474FEA4102EC
:4031C00012F5001215D211D56FF47873B3EB625212D94FEAC12343F0004343EA505311F0004F23FA02F018BF404270474FF00000704750EA013005D111F0004008BF6FF0EE
:40320000004070474FF00000704700BF4FEA4102B2F1E04324BFB3F5001CDCF1FE5C0DD901F0004C4FEAC0024CEA5070B2F1004F40EB830008BF20F00100704711F0804FBF
:4032400021D113F13872BCBF01F00040704741F480114FEA5252C2F11802C2F1200C10FA0CF320FA02F018BF40F001004FEAC1234FEAD32303FA0CFC40EA0C0023FA02F346
:403280004FEA4303CCE77FEA625307D150EA01331EBF4FF0FE4040F44000704701F0004040F0FE4040F40000704700BF80F0004002E000BF81F0004142001FBF5FEA4103FA
:4032C00092EA030F7FEA226C7FEA236C6AD04FEA1262D2EB1363C1BFD218414048404140B8BF5B42192B88BF704710F0004F40F4000020F07F4018BF404211F0004F41F4BD
:40330000000121F07F4118BF494292EA030F3FD0A2F1010241FA03FC10EB0C00C3F1200301FA03F100F0004302D5494260EB4000B0F5000F13D3B0F1807F06D340084FEA6B
:40334000310102F10102FE2A51D2B1F1004F40EBC25008BF20F0010040EA03007047490040EB000010F4000FA2F10102EDD1B0FA80FCACF1080CB2EB0C0200FA0CF0AABF34
:4033800000EBC25052421843BCBFD0401843704792F0000F81F4000106BF80F400000132013BB5E74FEA41037FEA226C18BF7FEA236C21D092EA030F04D092F0000F08BF4B
:4033C0000846704790EA010F1CBF0020704712F07F4F04D1400028BF40F00040704712F100723CBF00F50000704700F0004343F0FE4040F4000070477FEA226216BF0846DE
:403400007FEA23630146420206BF5FEA412390EA010F40F4800070474FF0000304E000BF10F0004348BF40425FEA000C08BF704743F0964301464FF000001CE050EA01025C
:4034400008BF70474FF000030AE000BF50EA010208BF704711F0004302D5404261EB41015FEA010C02BF84460146002043F0B64308BFA3F18053A3F50003BCFA8CF2083A4A
:40348000A3EBC25310DB01FA02FC634400FA02FCC2F12002BCF1004F20FA02F243EB020008BF20F00100704702F1200201FA02FCC2F1200250EA4C0021FA02F243EB0200A0
:4034C00008BF20EADC7070474FF0FF0C1CEAD0521EBF1CEAD15392EA0C0F93EA0C0F6FD01A4480EA010C400218BF5FEA41211ED04FF0006343EA501043EA5111A0FB0131FF
:403500000CF00040B1F5000F3EBF490041EAD3715B0040EA010062F17F02FD2A1DD8B3F1004F40EBC25008BF20F00100704790F0000F0CF0004C08BF49024CEA502040EAF7
:4035400051207F3AC2BFD2F1FF0340EAC250704740F400004FF00003013A5DDC12F1190FDCBF00F000407047C2F10002410021FA02F1C2F1200200FA02FC5FEA310040F1D5
:40358000000053EA4C0308BF20EADC70704792F0000F00F0004C02BF400010F4000F013AF9D040EA0C0093F0000F01F0004C02BF490011F4000F013BF9D041EA0C018FE7F0
:4035C0000CEAD15392EA0C0F18BF93EA0C0F0AD030F0004C18BF31F0004CD8D180EA010000F00040704790F0000F17BF90F0004F084691F0000F91F0004F14D092EA0C0FC9
:4036000001D142020FD193EA0C0F03D14B0218BF084608D180EA010000F0004040F0FE4040F40000704740F0FE4040F4400070474FF0FF0C1CEAD0521EBF1CEAD15392EA5B
:403640000C0F93EA0C0F69D0A2EB030280EA010C49024FEA402037D04FF0805343EA111143EA10130CF000408B4238BF5B0042F17D024FF4000C8B4224BF5B1A40EA0C0002
:40368000B3EB510F24BFA3EB510340EA5C00B3EB910F24BFA3EB910340EA9C00B3EBD10F24BFA3EBD10340EADC001B0118BF5FEA1C1CE0D1FD2A3FF650AF8B4240EBC25065
:4036C00008BF20F0010070470CF0004C4CEA50207F32C2BFD2F1FF0340EAC250704740F400004FF00003013A37E792F0000F00F0004C02BF400010F4000F013AF9D040EA85
:403700000C0093F0000F01F0004C02BF490011F4000F013BF9D041EA0C0195E70CEAD15392EA0C0F08D142027FF47DAF93EA0C0F7FF470AF084676E793EA0C0F04D14B02DB
:403740003FF44CAF08466EE730F0004C18BF31F0004CCAD130F000427FF45CAF31F000437FF43CAF5FE700BF42000ED2B2F1FE4F0BD34FF09E03B3EB126209D44FEA00236B
:4037800043F0004323FA02F070474FF00000704712F1610F01D1420202D14FF0FF3070474FF00000704700BF014B1868704700BF3081FF1F0E4B70B51E460E4C0025E41A31
:4037C000A410A54204D056F8253098470135F8E700F064F9084B094C1E46E41AA4100025A54204D056F8253098470135F8E770BDA83A0000A83A0000A83A0000B03A000084
:4038000010B5431E0A44914204D011F8014B03F8014FF8E710BD03460244934202D003F8011BFAE770470000000000000000000000002041000000000000A040205100404A
:403840005000C05100401000F0510040100000000140001000140140000800400140000A004C0140000200500140200061636F73000000007371727400000000FB21F93FC9
:40388000FB2109407CD91240FB2119407A6A1F407CD92240BBFD2540FB2129403A462C407A6A2F405C4731407CD932409C6B3440BBFD3540DB8F3740FB2139401BB43A406A
:4038C0003A463C405AD83D407A6A3F404C7E40405C4741406C1042407CD942408CA243409C6B4440AC344540BBFD4540CBC64640DB8F4740EB584840FB21494083F9A20003
:40390000444E6E00FC291500D1572700DD34F50062DBC0003C999500419043006351FE00BBDEAB00B761C5003A6E2400D24D42004906E00009EA2E001C92D100EB1DFE00A8
:4039400029B11C00E83EA700F535820044BB2E009CE98400B4267000417E5F00D6913900538339009CF439008B5F840028F9BD00F81F3B00DEFF97000F980500112FEF00D5
:403980000A5A8B006D1F6D00CF7E360009CB2700464FB7009E663F002DEA5F00BA277500E5EBC7003D7BF100F739070092528A00FB6BEA001FB15F00085D8D003003560067
:4039C0007BFC4600F0AB6B0020BCCF0036F49A00E3A91D005E619100081BE60085996500A0145F008D40680080D8FF0027734D0006063100CA561500C9A873007BE2600077
:403A00006B8CC000020000000300000004000000060000000000000000000040FB21F93F000000002D44743E000000809846F83C0000006051CC783B00000080831BF03900
:403A40000000004020257A38000000802282E336000000001DF36935E2652F227F2B7A3C075C143326A6813CBDCBF07A8807703C075C143326A6913C4FBB610567ACDD3FEA
:403A8000182D4454FB21E93F9BF681D20B73EF3F182D4454FB21F93F43000000F8B500BFF8BC08BC9E4670474D00000039050000F8B500BFF8BC08BC9E467047290000002F
:403AC000D03A0000C880FF1F700000003000000000000000010000000000000000000000000000000000000000000000000000000000000000000000983A000000000000E3
:403B00000000000000000000000000000000000000000000000000000000000000000000000000000000000000000000000000000000000000000000D080FF1F0000000017
:403B40000000000000000000000000000000000000000000000000000000000000000000000000000000000000000000000000000000000000000000000000000000000045
:403B80000000000000000000000000000000000000000000000000000000000000000000000000000000000000000000000000000000000000000000000000000000000005
:403BC00000000000000000000000000000000000000000000000000000000000000000000000000000000000000000000000000000000000000000000000000000000000C5
:403C00000000000000000000000000000000000000000000000000000000000000000000000000000000000000000000000000000000000000000000000000000000000084
:020000040003F7
:0200000480007A
:4000000002520040026400400265004041040140200501404E06014021070140531401402715014051160140231701400641014005420140034301400548014004500140F3
:4000400000060103850D870F850F870F060134014030410249FF4AFF4BFF4DA04F04501858045A045F01604062C06440654066C068C06AC06CC06EC0810185018A0696028B
:400080009C0CA80CAD01AE01B008B201B402B604B701BE10C030C102C5D0C620C710C83AC9FFCAFFCBFFCDAFCE0FCF04D018D280D405D804D904DA04DB04DF01E040E2C06D
:4000C000E440E540E6C0E8C0EAC0ECC0EEC0010804100F221608174019101C101D881E081F0226402F023E083F024010412045284F015520560857115E885F01774081809C
:40010000C044C2A0C4C0CA10CEC0D066D6D04050410649FF4AFF4BFF4DA04F0450185A045F016040624063A864406540664067A868406A406BA86C406D206E406FA885073F
:400140008C018D078E04921099049E08A301A406AC01AE0AB006B208B301B401B502B610B704B820BE14C010C102C5D5C640C721C83FC9FFCAFFCBFFCDAFCE0FCF04D018E8
:40018000D280D407D804D904DA04DB04DF01E040E240E3A8E440E540E640E7A8E840EA40EBA8EC40ED20EE40EFA800400A411022184419041A011B50212822402B403120EB
:4001C00038884004420149094FA0506659155A8072408D0899109D08C001C209C405CA01CC04CE0AD00CD230D60FE6102E01340136014010410549FF4AFF4BFF4DA04F0417
:400200005018528058045A045B045F016040624063A864406540664067A868406A406BA86C406D206E406FA881078406900192049D049E08A107A401A60AAA10AF01B006C0
:40024000B104B210B301B408B601B702B880BE50C060C101C5D4C620C715C83FC9FFCAFFCBFFCDAFCE0FCF04D018D407D804D904DA04DB04DF01E040E240E3A8E440E540E7
:40028000E640E7A8E840EA40EBA8EC40ED20EE40EFA805080E8110021628180119801A011B101C021D801EA82440250826802D802F8036803F024001458048014D084F21A3
:4002C000562857815C405E285F017002A508C020C290C461CA90CC10CE80D018D228D6F02E0132014050410649FF4AFF4BFF4DA04F04501858045A045F016040624063A861
:4003000064406540664067A868406A406BA86C406D206E406FA8850789078C018E04910492109E08A301A406AC01AE0AB006B102B208B301B401B610B704B820BE14C0100A
:40034000C102C5D4C605C721C83FC9FFCAFFCBFFCDAFCE0FCF04D018D280D407D804D904DA04DB04DF01E040E240E3A8E440E540E640E7A8E840EA40EBA8EC40ED20EE405E
:40038000EFA800400A4110221580184419041A011B501E10210222482B403102382840044201482049014FA05016514059055A90724082088508C001C209C485CA01CC01FF
:4003C000CE06D00CD230D60F5004510255045F20D4E0D620800494089F20A506E6808D029F20A506810487209F20A504E26000010A0110011A010000000F0F000F00000019
:40040000000B0B00000000000000000000000000000000000000000000000000000000000000000000000000000000000000000000000000000000000000000000000000A6
:40044000000000000000000000000000000000000000000000000000000000000000000000000000000000000000000000000000000000000000000000000000000000007C
:40048000000000000000000000000000000000000000000000000000000000000000000000000000000000000000000000000000000000000000000000000000000000003C
:4004C00000000000000000000000000000000000000000000000000000000000000000000000000000000000000000000000000000000000000000000000000000000000FC
:4005000000000000000000000000000000000000000000000000000000000000000000000000000000000000000000000000000000000000000000000000000000000000BB
:0200000490006A
:0400000000004005B7
:0200000490105A
:04000000BC90ACAF55
:0200000490303A
:0200000091ED80
:0200000490402A
:4000000000000000000000000000000000000000000000000000000000000000000000000000000000000000000000000000000000000000000000000000000000000000C0
:400040000000000000000000000000000000000000000000000000000000000000000000000000000000000000000000000000000000000000000000000000000000000080
:400080000000000000000000000000000000000000000000000000000000000000000000000000000000000000000000000000000000000000000000000000000000000040
:4000C0000000000000000000000000000000000000000000000000000000000000000000000000000000000000000000000000000000000000000000000000000000000000
:0200000490501A
:0C00000000012E16106900012E2FA256E0
:00000001FF